{
  "contractName": "Market",
  "abi": [
    {
      "inputs": [],
      "stateMutability": "nonpayable",
      "type": "constructor"
    },
    {
      "anonymous": false,
      "inputs": [
        {
          "indexed": true,
          "internalType": "address",
          "name": "owner",
          "type": "address"
        },
        {
          "indexed": true,
          "internalType": "address",
          "name": "approved",
          "type": "address"
        },
        {
          "indexed": true,
          "internalType": "uint256",
          "name": "tokenId",
          "type": "uint256"
        }
      ],
      "name": "Approval",
      "type": "event"
    },
    {
      "anonymous": false,
      "inputs": [
        {
          "indexed": true,
          "internalType": "address",
          "name": "owner",
          "type": "address"
        },
        {
          "indexed": true,
          "internalType": "address",
          "name": "operator",
          "type": "address"
        },
        {
          "indexed": false,
          "internalType": "bool",
          "name": "approved",
          "type": "bool"
        }
      ],
      "name": "ApprovalForAll",
      "type": "event"
    },
    {
      "anonymous": false,
      "inputs": [
        {
          "indexed": true,
          "internalType": "address",
          "name": "buyer",
          "type": "address"
        },
        {
          "indexed": false,
          "internalType": "uint256",
          "name": "price",
          "type": "uint256"
        },
        {
          "indexed": true,
          "internalType": "uint256",
          "name": "id",
          "type": "uint256"
        }
      ],
      "name": "BuyNFT",
      "type": "event"
    },
    {
      "anonymous": false,
      "inputs": [
        {
          "indexed": true,
          "internalType": "address",
          "name": "user",
          "type": "address"
        },
        {
          "indexed": false,
          "internalType": "uint256",
          "name": "amount",
          "type": "uint256"
        }
      ],
      "name": "GetTokenBuy",
      "type": "event"
    },
    {
      "anonymous": false,
      "inputs": [
        {
          "indexed": false,
          "internalType": "uint256",
          "name": "time",
          "type": "uint256"
        }
      ],
      "name": "Refund",
      "type": "event"
    },
    {
      "anonymous": false,
      "inputs": [
        {
          "indexed": true,
          "internalType": "address",
          "name": "user",
          "type": "address"
        },
        {
          "indexed": false,
          "internalType": "address",
          "name": "tokenIn",
          "type": "address"
        },
        {
          "indexed": false,
          "internalType": "address",
          "name": "tokenOut",
          "type": "address"
        },
        {
          "indexed": false,
          "internalType": "uint256",
          "name": "amountIn",
          "type": "uint256"
        },
        {
          "indexed": false,
          "internalType": "uint256",
          "name": "amountOut",
          "type": "uint256"
        }
      ],
      "name": "Swap",
      "type": "event"
    },
    {
      "anonymous": false,
      "inputs": [
        {
          "indexed": true,
          "internalType": "address",
          "name": "from",
          "type": "address"
        },
        {
          "indexed": true,
          "internalType": "address",
          "name": "to",
          "type": "address"
        },
        {
          "indexed": true,
          "internalType": "uint256",
          "name": "tokenId",
          "type": "uint256"
        }
      ],
      "name": "Transfer",
      "type": "event"
    },
    {
      "inputs": [
        {
          "internalType": "address",
          "name": "to",
          "type": "address"
        },
        {
          "internalType": "uint256",
          "name": "tokenId",
          "type": "uint256"
        }
      ],
      "name": "approve",
      "outputs": [],
      "stateMutability": "nonpayable",
      "type": "function"
    },
    {
      "inputs": [
        {
          "internalType": "address",
          "name": "owner",
          "type": "address"
        }
      ],
      "name": "balanceOf",
      "outputs": [
        {
          "internalType": "uint256",
          "name": "",
          "type": "uint256"
        }
      ],
      "stateMutability": "view",
      "type": "function"
    },
    {
      "inputs": [
        {
          "internalType": "uint256",
          "name": "tokenId",
          "type": "uint256"
        }
      ],
      "name": "getApproved",
      "outputs": [
        {
          "internalType": "address",
          "name": "",
          "type": "address"
        }
      ],
      "stateMutability": "view",
      "type": "function"
    },
    {
      "inputs": [
        {
          "internalType": "address",
          "name": "owner",
          "type": "address"
        },
        {
          "internalType": "address",
          "name": "operator",
          "type": "address"
        }
      ],
      "name": "isApprovedForAll",
      "outputs": [
        {
          "internalType": "bool",
          "name": "",
          "type": "bool"
        }
      ],
      "stateMutability": "view",
      "type": "function"
    },
    {
      "inputs": [],
      "name": "name",
      "outputs": [
        {
          "internalType": "string",
          "name": "",
          "type": "string"
        }
      ],
      "stateMutability": "view",
      "type": "function"
    },
    {
      "inputs": [
        {
          "internalType": "uint256",
          "name": "tokenId",
          "type": "uint256"
        }
      ],
      "name": "ownerOf",
      "outputs": [
        {
          "internalType": "address",
          "name": "",
          "type": "address"
        }
      ],
      "stateMutability": "view",
      "type": "function"
    },
    {
      "inputs": [
        {
          "internalType": "address",
          "name": "from",
          "type": "address"
        },
        {
          "internalType": "address",
          "name": "to",
          "type": "address"
        },
        {
          "internalType": "uint256",
          "name": "tokenId",
          "type": "uint256"
        }
      ],
      "name": "safeTransferFrom",
      "outputs": [],
      "stateMutability": "nonpayable",
      "type": "function"
    },
    {
      "inputs": [
        {
          "internalType": "address",
          "name": "from",
          "type": "address"
        },
        {
          "internalType": "address",
          "name": "to",
          "type": "address"
        },
        {
          "internalType": "uint256",
          "name": "tokenId",
          "type": "uint256"
        },
        {
          "internalType": "bytes",
          "name": "_data",
          "type": "bytes"
        }
      ],
      "name": "safeTransferFrom",
      "outputs": [],
      "stateMutability": "nonpayable",
      "type": "function"
    },
    {
      "inputs": [
        {
          "internalType": "address",
          "name": "operator",
          "type": "address"
        },
        {
          "internalType": "bool",
          "name": "approved",
          "type": "bool"
        }
      ],
      "name": "setApprovalForAll",
      "outputs": [],
      "stateMutability": "nonpayable",
      "type": "function"
    },
    {
      "inputs": [
        {
          "internalType": "bytes4",
          "name": "interfaceId",
          "type": "bytes4"
        }
      ],
      "name": "supportsInterface",
      "outputs": [
        {
          "internalType": "bool",
          "name": "",
          "type": "bool"
        }
      ],
      "stateMutability": "view",
      "type": "function"
    },
    {
      "inputs": [],
      "name": "symbol",
      "outputs": [
        {
          "internalType": "string",
          "name": "",
          "type": "string"
        }
      ],
      "stateMutability": "view",
      "type": "function"
    },
    {
      "inputs": [
        {
          "internalType": "uint256",
          "name": "tokenId",
          "type": "uint256"
        }
      ],
      "name": "tokenURI",
      "outputs": [
        {
          "internalType": "string",
          "name": "",
          "type": "string"
        }
      ],
      "stateMutability": "view",
      "type": "function"
    },
    {
      "inputs": [
        {
          "internalType": "address",
          "name": "from",
          "type": "address"
        },
        {
          "internalType": "address",
          "name": "to",
          "type": "address"
        },
        {
          "internalType": "uint256",
          "name": "tokenId",
          "type": "uint256"
        }
      ],
      "name": "transferFrom",
      "outputs": [],
      "stateMutability": "nonpayable",
      "type": "function"
    },
    {
      "inputs": [],
      "name": "getTokenBuy",
      "outputs": [],
      "stateMutability": "payable",
      "type": "function"
    },
    {
      "inputs": [
        {
          "internalType": "uint256",
          "name": "tokenId",
          "type": "uint256"
        },
        {
          "internalType": "uint256",
          "name": "price",
          "type": "uint256"
        }
      ],
      "name": "buyNFT",
      "outputs": [],
      "stateMutability": "nonpayable",
      "type": "function"
    },
    {
      "inputs": [],
      "name": "showEtherBalance",
      "outputs": [
        {
          "internalType": "uint256",
          "name": "",
          "type": "uint256"
        }
      ],
      "stateMutability": "view",
      "type": "function"
    },
    {
      "inputs": [],
      "name": "refund",
      "outputs": [],
      "stateMutability": "nonpayable",
      "type": "function"
    },
    {
      "inputs": [
        {
          "internalType": "address",
          "name": "tokenIn",
          "type": "address"
        },
        {
          "internalType": "uint256",
          "name": "amountIn",
          "type": "uint256"
        }
      ],
      "name": "swap",
      "outputs": [],
      "stateMutability": "nonpayable",
      "type": "function"
    }
  ],
  "bytecode": "0x60a06040523480156200001157600080fd5b506040518060400160405280600b81526020017f4e46542d313667726f75700000000000000000000000000000000000000000008152506040518060400160405280600681526020017f4e46542d31360000000000000000000000000000000000000000000000000000815250816000908051906020019062000096929190620000ec565b508060019080519060200190620000af929190620000ec565b5050503373ffffffffffffffffffffffffffffffffffffffff1660808173ffffffffffffffffffffffffffffffffffffffff168152505062000200565b828054620000fa90620001cb565b90600052602060002090601f0160209004810192826200011e57600085556200016a565b82601f106200013957805160ff19168380011785556200016a565b828001600101855582156200016a579182015b82811115620001695782518255916020019190600101906200014c565b5b5090506200017991906200017d565b5090565b5b80821115620001985760008160009055506001016200017e565b5090565b7f4e487b7100000000000000000000000000000000000000000000000000000000600052602260045260246000fd5b60006002820490506001821680620001e457607f821691505b602082108103620001fa57620001f96200019c565b5b50919050565b6080516135b76200022a600039600081816108d601528181610ab80152610b6b01526135b76000f3fe6080604052600436106101095760003560e01c806370a0823111610095578063bd88689311610064578063bd88689314610365578063c87b56dd1461036f578063d004f0f7146103ac578063e985e9c5146103d5578063f23958d11461041257610109565b806370a08231146102ab57806395d89b41146102e8578063a22cb46514610313578063b88d4fde1461033c57610109565b80631d85bf03116100dc5780631d85bf03146101dc57806323b872dd1461020557806342842e0e1461022e578063590e1ae3146102575780636352211e1461026e57610109565b806301ffc9a71461010e57806306fdde031461014b578063081812fc14610176578063095ea7b3146101b3575b600080fd5b34801561011a57600080fd5b506101356004803603810190610130919061230d565b61043d565b6040516101429190612355565b60405180910390f35b34801561015757600080fd5b5061016061051f565b60405161016d9190612409565b60405180910390f35b34801561018257600080fd5b5061019d60048036038101906101989190612461565b6105b1565b6040516101aa91906124cf565b60405180910390f35b3480156101bf57600080fd5b506101da60048036038101906101d59190612516565b610636565b005b3480156101e857600080fd5b5061020360048036038101906101fe9190612556565b61074d565b005b34801561021157600080fd5b5061022c60048036038101906102279190612596565b610854565b005b34801561023a57600080fd5b5061025560048036038101906102509190612596565b6108b4565b005b34801561026357600080fd5b5061026c6108d4565b005b34801561027a57600080fd5b5061029560048036038101906102909190612461565b610c27565b6040516102a291906124cf565b60405180910390f35b3480156102b757600080fd5b506102d260048036038101906102cd91906125e9565b610cd8565b6040516102df9190612625565b60405180910390f35b3480156102f457600080fd5b506102fd610d8f565b60405161030a9190612409565b60405180910390f35b34801561031f57600080fd5b5061033a6004803603810190610335919061266c565b610e21565b005b34801561034857600080fd5b50610363600480360381019061035e91906127e1565b610e37565b005b61036d610e99565b005b34801561037b57600080fd5b5061039660048036038101906103919190612461565b610fa2565b6040516103a39190612409565b60405180910390f35b3480156103b857600080fd5b506103d360048036038101906103ce9190612516565b611049565b005b3480156103e157600080fd5b506103fc60048036038101906103f79190612864565b611500565b6040516104099190612355565b60405180910390f35b34801561041e57600080fd5b50610427611594565b6040516104349190612625565b60405180910390f35b60007f80ac58cd000000000000000000000000000000000000000000000000000000007bffffffffffffffffffffffffffffffffffffffffffffffffffffffff1916827bffffffffffffffffffffffffffffffffffffffffffffffffffffffff1916148061050857507f5b5e139f000000000000000000000000000000000000000000000000000000007bffffffffffffffffffffffffffffffffffffffffffffffffffffffff1916827bffffffffffffffffffffffffffffffffffffffffffffffffffffffff1916145b8061051857506105178261159c565b5b9050919050565b60606000805461052e906128d3565b80601f016020809104026020016040519081016040528092919081815260200182805461055a906128d3565b80156105a75780601f1061057c576101008083540402835291602001916105a7565b820191906000526020600020905b81548152906001019060200180831161058a57829003601f168201915b5050505050905090565b60006105bc82611606565b6105fb576040517f08c379a00000000000000000000000000000000000000000000000000000000081526004016105f290612976565b60405180910390fd5b6004600083815260200190815260200160002060009054906101000a900473ffffffffffffffffffffffffffffffffffffffff169050919050565b600061064182610c27565b90508073ffffffffffffffffffffffffffffffffffffffff168373ffffffffffffffffffffffffffffffffffffffff16036106b1576040517f08c379a00000000000000000000000000000000000000000000000000000000081526004016106a890612a08565b60405180910390fd5b8073ffffffffffffffffffffffffffffffffffffffff166106d0611672565b73ffffffffffffffffffffffffffffffffffffffff1614806106ff57506106fe816106f9611672565b611500565b5b61073e576040517f08c379a000000000000000000000000000000000000000000000000000000000815260040161073590612a9a565b60405180910390fd5b610748838361167a565b505050565b73cff94b4606c1e3d73510a80d9868d9b07825d69273ffffffffffffffffffffffffffffffffffffffff166323b872dd3330846040518463ffffffff1660e01b815260040161079e93929190612aba565b6020604051808303816000875af11580156107bd573d6000803e3d6000fd5b505050506040513d601f19601f820116820180604052508101906107e19190612b06565b506107ec3383611733565b813373ffffffffffffffffffffffffffffffffffffffff167f5d963241241cfe9e161d13500d628058954b3febfde03e4b1f4071370e72fe2b6064846108329190612b91565b60405161083f9190612625565b60405180910390a361085081611751565b5050565b61086561085f611672565b826117f9565b6108a4576040517f08c379a000000000000000000000000000000000000000000000000000000000815260040161089b90612c34565b60405180910390fd5b6108af8383836118d7565b505050565b6108cf83838360405180602001604052806000815250610e37565b505050565b7f000000000000000000000000000000000000000000000000000000000000000073ffffffffffffffffffffffffffffffffffffffff163373ffffffffffffffffffffffffffffffffffffffff1614610962576040517f08c379a000000000000000000000000000000000000000000000000000000000815260040161095990612ca0565b60405180910390fd5b600073cff94b4606c1e3d73510a80d9868d9b07825d69273ffffffffffffffffffffffffffffffffffffffff166370a08231306040518263ffffffff1660e01b81526004016109b191906124cf565b602060405180830381865afa1580156109ce573d6000803e3d6000fd5b505050506040513d601f19601f820116820180604052508101906109f29190612cd5565b9050600073cff94b4606c1e3d73510a80d9868d9b07825d69273ffffffffffffffffffffffffffffffffffffffff166370a08231306040518263ffffffff1660e01b8152600401610a4391906124cf565b602060405180830381865afa158015610a60573d6000803e3d6000fd5b505050506040513d601f19601f82011682018060405250810190610a849190612cd5565b905073cff94b4606c1e3d73510a80d9868d9b07825d69273ffffffffffffffffffffffffffffffffffffffff1663a9059cbb7f0000000000000000000000000000000000000000000000000000000000000000846040518363ffffffff1660e01b8152600401610af5929190612d02565b6020604051808303816000875af1158015610b14573d6000803e3d6000fd5b505050506040513d601f19601f82011682018060405250810190610b389190612b06565b5073cff94b4606c1e3d73510a80d9868d9b07825d69273ffffffffffffffffffffffffffffffffffffffff1663a9059cbb7f0000000000000000000000000000000000000000000000000000000000000000836040518363ffffffff1660e01b8152600401610ba8929190612d02565b6020604051808303816000875af1158015610bc7573d6000803e3d6000fd5b505050506040513d601f19601f82011682018060405250810190610beb9190612b06565b507f2e1897b0591d764356194f7a795238a87c1987c7a877568e50d829d547c92b9742604051610c1b9190612625565b60405180910390a15050565b6000806002600084815260200190815260200160002060009054906101000a900473ffffffffffffffffffffffffffffffffffffffff169050600073ffffffffffffffffffffffffffffffffffffffff168173ffffffffffffffffffffffffffffffffffffffff1603610ccf576040517f08c379a0000000000000000000000000000000000000000000000000000000008152600401610cc690612d9d565b60405180910390fd5b80915050919050565b60008073ffffffffffffffffffffffffffffffffffffffff168273ffffffffffffffffffffffffffffffffffffffff1603610d48576040517f08c379a0000000000000000000000000000000000000000000000000000000008152600401610d3f90612e2f565b60405180910390fd5b600360008373ffffffffffffffffffffffffffffffffffffffff1673ffffffffffffffffffffffffffffffffffffffff168152602001908152602001600020549050919050565b606060018054610d9e906128d3565b80601f0160208091040260200160405190810160405280929190818152602001828054610dca906128d3565b8015610e175780601f10610dec57610100808354040283529160200191610e17565b820191906000526020600020905b815481529060010190602001808311610dfa57829003601f168201915b5050505050905090565b610e33610e2c611672565b8383611b3d565b5050565b610e48610e42611672565b836117f9565b610e87576040517f08c379a0000000000000000000000000000000000000000000000000000000008152600401610e7e90612c34565b60405180910390fd5b610e9384848484611ca9565b50505050565b6000670de0b6b3a764000034610eaf9190612b91565b905073cff94b4606c1e3d73510a80d9868d9b07825d69273ffffffffffffffffffffffffffffffffffffffff1663a9059cbb3361271084610ef09190612e4f565b6040518363ffffffff1660e01b8152600401610f0d929190612d02565b6020604051808303816000875af1158015610f2c573d6000803e3d6000fd5b505050506040513d601f19601f82011682018060405250810190610f509190612b06565b503373ffffffffffffffffffffffffffffffffffffffff167f8a95714e927aa8b1b9c91f76cf6ea770446cf83958212a0410452eb5a834c56382604051610f979190612625565b60405180910390a250565b6060610fad82611606565b610fec576040517f08c379a0000000000000000000000000000000000000000000000000000000008152600401610fe390612f1b565b60405180910390fd5b6000610ff6611d05565b905060008151116110165760405180602001604052806000815250611041565b8061102084611d1c565b604051602001611031929190612f77565b6040516020818303038152906040525b915050919050565b600073cff94b4606c1e3d73510a80d9868d9b07825d69273ffffffffffffffffffffffffffffffffffffffff166370a08231306040518263ffffffff1660e01b815260040161109891906124cf565b602060405180830381865afa1580156110b5573d6000803e3d6000fd5b505050506040513d601f19601f820116820180604052508101906110d99190612cd5565b9050600073cff94b4606c1e3d73510a80d9868d9b07825d69273ffffffffffffffffffffffffffffffffffffffff166370a08231306040518263ffffffff1660e01b815260040161112a91906124cf565b602060405180830381865afa158015611147573d6000803e3d6000fd5b505050506040513d601f19601f8201168201806040525081019061116b9190612cd5565b905073cff94b4606c1e3d73510a80d9868d9b07825d69273ffffffffffffffffffffffffffffffffffffffff168473ffffffffffffffffffffffffffffffffffffffff16036113595773cff94b4606c1e3d73510a80d9868d9b07825d69273ffffffffffffffffffffffffffffffffffffffff166323b872dd3330866040518463ffffffff1660e01b815260040161120593929190612aba565b6020604051808303816000875af1158015611224573d6000803e3d6000fd5b505050506040513d601f19601f820116820180604052508101906112489190612b06565b506000611256838386611e7c565b905073cff94b4606c1e3d73510a80d9868d9b07825d69273ffffffffffffffffffffffffffffffffffffffff1663a9059cbb33836040518363ffffffff1660e01b81526004016112a7929190612d02565b6020604051808303816000875af11580156112c6573d6000803e3d6000fd5b505050506040513d601f19601f820116820180604052508101906112ea9190612b06565b503373ffffffffffffffffffffffffffffffffffffffff167fcd3829a3813dc3cdd188fd3d01dcf3268c16be2fdd2dd21d0665418816e460628673cff94b4606c1e3d73510a80d9868d9b07825d692878560405161134b9493929190612f9b565b60405180910390a2506114fa565b73cff94b4606c1e3d73510a80d9868d9b07825d69273ffffffffffffffffffffffffffffffffffffffff166323b872dd3330866040518463ffffffff1660e01b81526004016113aa93929190612aba565b6020604051808303816000875af11580156113c9573d6000803e3d6000fd5b505050506040513d601f19601f820116820180604052508101906113ed9190612b06565b5060006113fb828486611e7c565b905073cff94b4606c1e3d73510a80d9868d9b07825d69273ffffffffffffffffffffffffffffffffffffffff1663a9059cbb33836040518363ffffffff1660e01b815260040161144c929190612d02565b6020604051808303816000875af115801561146b573d6000803e3d6000fd5b505050506040513d601f19601f8201168201806040525081019061148f9190612b06565b503373ffffffffffffffffffffffffffffffffffffffff167fcd3829a3813dc3cdd188fd3d01dcf3268c16be2fdd2dd21d0665418816e460628673cff94b4606c1e3d73510a80d9868d9b07825d69287856040516114f09493929190612f9b565b60405180910390a2505b50505050565b6000600560008473ffffffffffffffffffffffffffffffffffffffff1673ffffffffffffffffffffffffffffffffffffffff16815260200190815260200160002060008373ffffffffffffffffffffffffffffffffffffffff1673ffffffffffffffffffffffffffffffffffffffff16815260200190815260200160002060009054906101000a900460ff16905092915050565b600047905090565b60007f01ffc9a7000000000000000000000000000000000000000000000000000000007bffffffffffffffffffffffffffffffffffffffffffffffffffffffff1916827bffffffffffffffffffffffffffffffffffffffffffffffffffffffff1916149050919050565b60008073ffffffffffffffffffffffffffffffffffffffff166002600084815260200190815260200160002060009054906101000a900473ffffffffffffffffffffffffffffffffffffffff1673ffffffffffffffffffffffffffffffffffffffff1614159050919050565b600033905090565b816004600083815260200190815260200160002060006101000a81548173ffffffffffffffffffffffffffffffffffffffff021916908373ffffffffffffffffffffffffffffffffffffffff160217905550808273ffffffffffffffffffffffffffffffffffffffff166116ed83610c27565b73ffffffffffffffffffffffffffffffffffffffff167f8c5be1e5ebec7d5bd14f71427d1e84f3dd0314c0f7b2291e5b200ac8c7c3b92560405160405180910390a45050565b61174d828260405180602001604052806000815250611eb9565b5050565b60006002826117609190612b91565b905073cff94b4606c1e3d73510a80d9868d9b07825d69273ffffffffffffffffffffffffffffffffffffffff1663a9059cbb32836040518363ffffffff1660e01b81526004016117b1929190612d02565b6020604051808303816000875af11580156117d0573d6000803e3d6000fd5b505050506040513d601f19601f820116820180604052508101906117f49190612b06565b505050565b600061180482611606565b611843576040517f08c379a000000000000000000000000000000000000000000000000000000000815260040161183a90613052565b60405180910390fd5b600061184e83610c27565b90508073ffffffffffffffffffffffffffffffffffffffff168473ffffffffffffffffffffffffffffffffffffffff161480611890575061188f8185611500565b5b806118ce57508373ffffffffffffffffffffffffffffffffffffffff166118b6846105b1565b73ffffffffffffffffffffffffffffffffffffffff16145b91505092915050565b8273ffffffffffffffffffffffffffffffffffffffff166118f782610c27565b73ffffffffffffffffffffffffffffffffffffffff161461194d576040517f08c379a0000000000000000000000000000000000000000000000000000000008152600401611944906130e4565b60405180910390fd5b600073ffffffffffffffffffffffffffffffffffffffff168273ffffffffffffffffffffffffffffffffffffffff16036119bc576040517f08c379a00000000000000000000000000000000000000000000000000000000081526004016119b390613176565b60405180910390fd5b6119c7838383611f14565b6119d260008261167a565b6001600360008573ffffffffffffffffffffffffffffffffffffffff1673ffffffffffffffffffffffffffffffffffffffff1681526020019081526020016000206000828254611a229190613196565b925050819055506001600360008473ffffffffffffffffffffffffffffffffffffffff1673ffffffffffffffffffffffffffffffffffffffff1681526020019081526020016000206000828254611a7991906131ca565b92505081905550816002600083815260200190815260200160002060006101000a81548173ffffffffffffffffffffffffffffffffffffffff021916908373ffffffffffffffffffffffffffffffffffffffff160217905550808273ffffffffffffffffffffffffffffffffffffffff168473ffffffffffffffffffffffffffffffffffffffff167fddf252ad1be2c89b69c2b068fc378daa952ba7f163c4a11628f55a4df523b3ef60405160405180910390a4611b38838383611f19565b505050565b8173ffffffffffffffffffffffffffffffffffffffff168373ffffffffffffffffffffffffffffffffffffffff1603611bab576040517f08c379a0000000000000000000000000000000000000000000000000000000008152600401611ba29061326c565b60405180910390fd5b80600560008573ffffffffffffffffffffffffffffffffffffffff1673ffffffffffffffffffffffffffffffffffffffff16815260200190815260200160002060008473ffffffffffffffffffffffffffffffffffffffff1673ffffffffffffffffffffffffffffffffffffffff16815260200190815260200160002060006101000a81548160ff0219169083151502179055508173ffffffffffffffffffffffffffffffffffffffff168373ffffffffffffffffffffffffffffffffffffffff167f17307eab39ab6107e8899845ad3d59bd9653f200f220920489ca2b5937696c3183604051611c9c9190612355565b60405180910390a3505050565b611cb48484846118d7565b611cc084848484611f1e565b611cff576040517f08c379a0000000000000000000000000000000000000000000000000000000008152600401611cf6906132fe565b60405180910390fd5b50505050565b606060405180602001604052806000815250905090565b606060008203611d63576040518060400160405280600181526020017f30000000000000000000000000000000000000000000000000000000000000008152509050611e77565b600082905060005b60008214611d95578080611d7e9061331e565b915050600a82611d8e9190612b91565b9150611d6b565b60008167ffffffffffffffff811115611db157611db06126b6565b5b6040519080825280601f01601f191660200182016040528015611de35781602001600182028036833780820191505090505b5090505b60008514611e7057600182611dfc9190613196565b9150600a85611e0b9190613366565b6030611e1791906131ca565b60f81b818381518110611e2d57611e2c613397565b5b60200101907effffffffffffffffffffffffffffffffffffffffffffffffffffffffffffff1916908160001a905350600a85611e699190612b91565b9450611de7565b8093505050505b919050565b6000808285611e8b91906131ca565b8486611e979190612e4f565b611ea19190612b91565b90508084611eaf9190613196565b9150509392505050565b611ec383836120a5565b611ed06000848484611f1e565b611f0f576040517f08c379a0000000000000000000000000000000000000000000000000000000008152600401611f06906132fe565b60405180910390fd5b505050565b505050565b505050565b6000611f3f8473ffffffffffffffffffffffffffffffffffffffff1661227e565b15612098578373ffffffffffffffffffffffffffffffffffffffff1663150b7a02611f68611672565b8786866040518563ffffffff1660e01b8152600401611f8a949392919061341b565b6020604051808303816000875af1925050508015611fc657506040513d601f19601f82011682018060405250810190611fc3919061347c565b60015b612048573d8060008114611ff6576040519150601f19603f3d011682016040523d82523d6000602084013e611ffb565b606091505b506000815103612040576040517f08c379a0000000000000000000000000000000000000000000000000000000008152600401612037906132fe565b60405180910390fd5b805181602001fd5b63150b7a0260e01b7bffffffffffffffffffffffffffffffffffffffffffffffffffffffff1916817bffffffffffffffffffffffffffffffffffffffffffffffffffffffff19161491505061209d565b600190505b949350505050565b600073ffffffffffffffffffffffffffffffffffffffff168273ffffffffffffffffffffffffffffffffffffffff1603612114576040517f08c379a000000000000000000000000000000000000000000000000000000000815260040161210b906134f5565b60405180910390fd5b61211d81611606565b1561215d576040517f08c379a000000000000000000000000000000000000000000000000000000000815260040161215490613561565b60405180910390fd5b61216960008383611f14565b6001600360008473ffffffffffffffffffffffffffffffffffffffff1673ffffffffffffffffffffffffffffffffffffffff16815260200190815260200160002060008282546121b991906131ca565b92505081905550816002600083815260200190815260200160002060006101000a81548173ffffffffffffffffffffffffffffffffffffffff021916908373ffffffffffffffffffffffffffffffffffffffff160217905550808273ffffffffffffffffffffffffffffffffffffffff16600073ffffffffffffffffffffffffffffffffffffffff167fddf252ad1be2c89b69c2b068fc378daa952ba7f163c4a11628f55a4df523b3ef60405160405180910390a461227a60008383611f19565b5050565b6000808273ffffffffffffffffffffffffffffffffffffffff163b119050919050565b6000604051905090565b600080fd5b600080fd5b60007fffffffff0000000000000000000000000000000000000000000000000000000082169050919050565b6122ea816122b5565b81146122f557600080fd5b50565b600081359050612307816122e1565b92915050565b600060208284031215612323576123226122ab565b5b6000612331848285016122f8565b91505092915050565b60008115159050919050565b61234f8161233a565b82525050565b600060208201905061236a6000830184612346565b92915050565b600081519050919050565b600082825260208201905092915050565b60005b838110156123aa57808201518184015260208101905061238f565b838111156123b9576000848401525b50505050565b6000601f19601f8301169050919050565b60006123db82612370565b6123e5818561237b565b93506123f581856020860161238c565b6123fe816123bf565b840191505092915050565b6000602082019050818103600083015261242381846123d0565b905092915050565b6000819050919050565b61243e8161242b565b811461244957600080fd5b50565b60008135905061245b81612435565b92915050565b600060208284031215612477576124766122ab565b5b60006124858482850161244c565b91505092915050565b600073ffffffffffffffffffffffffffffffffffffffff82169050919050565b60006124b98261248e565b9050919050565b6124c9816124ae565b82525050565b60006020820190506124e460008301846124c0565b92915050565b6124f3816124ae565b81146124fe57600080fd5b50565b600081359050612510816124ea565b92915050565b6000806040838503121561252d5761252c6122ab565b5b600061253b85828601612501565b925050602061254c8582860161244c565b9150509250929050565b6000806040838503121561256d5761256c6122ab565b5b600061257b8582860161244c565b925050602061258c8582860161244c565b9150509250929050565b6000806000606084860312156125af576125ae6122ab565b5b60006125bd86828701612501565b93505060206125ce86828701612501565b92505060406125df8682870161244c565b9150509250925092565b6000602082840312156125ff576125fe6122ab565b5b600061260d84828501612501565b91505092915050565b61261f8161242b565b82525050565b600060208201905061263a6000830184612616565b92915050565b6126498161233a565b811461265457600080fd5b50565b60008135905061266681612640565b92915050565b60008060408385031215612683576126826122ab565b5b600061269185828601612501565b92505060206126a285828601612657565b9150509250929050565b600080fd5b600080fd5b7f4e487b7100000000000000000000000000000000000000000000000000000000600052604160045260246000fd5b6126ee826123bf565b810181811067ffffffffffffffff8211171561270d5761270c6126b6565b5b80604052505050565b60006127206122a1565b905061272c82826126e5565b919050565b600067ffffffffffffffff82111561274c5761274b6126b6565b5b612755826123bf565b9050602081019050919050565b82818337600083830152505050565b600061278461277f84612731565b612716565b9050828152602081018484840111156127a05761279f6126b1565b5b6127ab848285612762565b509392505050565b600082601f8301126127c8576127c76126ac565b5b81356127d8848260208601612771565b91505092915050565b600080600080608085870312156127fb576127fa6122ab565b5b600061280987828801612501565b945050602061281a87828801612501565b935050604061282b8782880161244c565b925050606085013567ffffffffffffffff81111561284c5761284b6122b0565b5b612858878288016127b3565b91505092959194509250565b6000806040838503121561287b5761287a6122ab565b5b600061288985828601612501565b925050602061289a85828601612501565b9150509250929050565b7f4e487b7100000000000000000000000000000000000000000000000000000000600052602260045260246000fd5b600060028204905060018216806128eb57607f821691505b6020821081036128fe576128fd6128a4565b5b50919050565b7f4552433732313a20617070726f76656420717565727920666f72206e6f6e657860008201527f697374656e7420746f6b656e0000000000000000000000000000000000000000602082015250565b6000612960602c8361237b565b915061296b82612904565b604082019050919050565b6000602082019050818103600083015261298f81612953565b9050919050565b7f4552433732313a20617070726f76616c20746f2063757272656e74206f776e6560008201527f7200000000000000000000000000000000000000000000000000000000000000602082015250565b60006129f260218361237b565b91506129fd82612996565b604082019050919050565b60006020820190508181036000830152612a21816129e5565b9050919050565b7f4552433732313a20617070726f76652063616c6c6572206973206e6f74206f7760008201527f6e6572206e6f7220617070726f76656420666f7220616c6c0000000000000000602082015250565b6000612a8460388361237b565b9150612a8f82612a28565b604082019050919050565b60006020820190508181036000830152612ab381612a77565b9050919050565b6000606082019050612acf60008301866124c0565b612adc60208301856124c0565b612ae96040830184612616565b949350505050565b600081519050612b0081612640565b92915050565b600060208284031215612b1c57612b1b6122ab565b5b6000612b2a84828501612af1565b91505092915050565b7f4e487b7100000000000000000000000000000000000000000000000000000000600052601260045260246000fd5b7f4e487b7100000000000000000000000000000000000000000000000000000000600052601160045260246000fd5b6000612b9c8261242b565b9150612ba78361242b565b925082612bb757612bb6612b33565b5b828204905092915050565b7f4552433732313a207472616e736665722063616c6c6572206973206e6f74206f60008201527f776e6572206e6f7220617070726f766564000000000000000000000000000000602082015250565b6000612c1e60318361237b565b9150612c2982612bc2565b604082019050919050565b60006020820190508181036000830152612c4d81612c11565b9050919050565b7f4f6e6c792063726561746f722063616e20726566756e64210000000000000000600082015250565b6000612c8a60188361237b565b9150612c9582612c54565b602082019050919050565b60006020820190508181036000830152612cb981612c7d565b9050919050565b600081519050612ccf81612435565b92915050565b600060208284031215612ceb57612cea6122ab565b5b6000612cf984828501612cc0565b91505092915050565b6000604082019050612d1760008301856124c0565b612d246020830184612616565b9392505050565b7f4552433732313a206f776e657220717565727920666f72206e6f6e657869737460008201527f656e7420746f6b656e0000000000000000000000000000000000000000000000602082015250565b6000612d8760298361237b565b9150612d9282612d2b565b604082019050919050565b60006020820190508181036000830152612db681612d7a565b9050919050565b7f4552433732313a2062616c616e636520717565727920666f7220746865207a6560008201527f726f206164647265737300000000000000000000000000000000000000000000602082015250565b6000612e19602a8361237b565b9150612e2482612dbd565b604082019050919050565b60006020820190508181036000830152612e4881612e0c565b9050919050565b6000612e5a8261242b565b9150612e658361242b565b9250817fffffffffffffffffffffffffffffffffffffffffffffffffffffffffffffffff0483118215151615612e9e57612e9d612b62565b5b828202905092915050565b7f4552433732314d657461646174613a2055524920717565727920666f72206e6f60008201527f6e6578697374656e7420746f6b656e0000000000000000000000000000000000602082015250565b6000612f05602f8361237b565b9150612f1082612ea9565b604082019050919050565b60006020820190508181036000830152612f3481612ef8565b9050919050565b600081905092915050565b6000612f5182612370565b612f5b8185612f3b565b9350612f6b81856020860161238c565b80840191505092915050565b6000612f838285612f46565b9150612f8f8284612f46565b91508190509392505050565b6000608082019050612fb060008301876124c0565b612fbd60208301866124c0565b612fca6040830185612616565b612fd76060830184612616565b95945050505050565b7f4552433732313a206f70657261746f7220717565727920666f72206e6f6e657860008201527f697374656e7420746f6b656e0000000000000000000000000000000000000000602082015250565b600061303c602c8361237b565b915061304782612fe0565b604082019050919050565b6000602082019050818103600083015261306b8161302f565b9050919050565b7f4552433732313a207472616e736665722066726f6d20696e636f72726563742060008201527f6f776e6572000000000000000000000000000000000000000000000000000000602082015250565b60006130ce60258361237b565b91506130d982613072565b604082019050919050565b600060208201905081810360008301526130fd816130c1565b9050919050565b7f4552433732313a207472616e7366657220746f20746865207a65726f2061646460008201527f7265737300000000000000000000000000000000000000000000000000000000602082015250565b600061316060248361237b565b915061316b82613104565b604082019050919050565b6000602082019050818103600083015261318f81613153565b9050919050565b60006131a18261242b565b91506131ac8361242b565b9250828210156131bf576131be612b62565b5b828203905092915050565b60006131d58261242b565b91506131e08361242b565b9250827fffffffffffffffffffffffffffffffffffffffffffffffffffffffffffffffff0382111561321557613214612b62565b5b828201905092915050565b7f4552433732313a20617070726f766520746f2063616c6c657200000000000000600082015250565b600061325660198361237b565b915061326182613220565b602082019050919050565b6000602082019050818103600083015261328581613249565b9050919050565b7f4552433732313a207472616e7366657220746f206e6f6e20455243373231526560008201527f63656976657220696d706c656d656e7465720000000000000000000000000000602082015250565b60006132e860328361237b565b91506132f38261328c565b604082019050919050565b60006020820190508181036000830152613317816132db565b9050919050565b60006133298261242b565b91507fffffffffffffffffffffffffffffffffffffffffffffffffffffffffffffffff820361335b5761335a612b62565b5b600182019050919050565b60006133718261242b565b915061337c8361242b565b92508261338c5761338b612b33565b5b828206905092915050565b7f4e487b7100000000000000000000000000000000000000000000000000000000600052603260045260246000fd5b600081519050919050565b600082825260208201905092915050565b60006133ed826133c6565b6133f781856133d1565b935061340781856020860161238c565b613410816123bf565b840191505092915050565b600060808201905061343060008301876124c0565b61343d60208301866124c0565b61344a6040830185612616565b818103606083015261345c81846133e2565b905095945050505050565b600081519050613476816122e1565b92915050565b600060208284031215613492576134916122ab565b5b60006134a084828501613467565b91505092915050565b7f4552433732313a206d696e7420746f20746865207a65726f2061646472657373600082015250565b60006134df60208361237b565b91506134ea826134a9565b602082019050919050565b6000602082019050818103600083015261350e816134d2565b9050919050565b7f4552433732313a20746f6b656e20616c7265616479206d696e74656400000000600082015250565b600061354b601c8361237b565b915061355682613515565b602082019050919050565b6000602082019050818103600083015261357a8161353e565b905091905056fea26469706673582212208dddfb8cc87f076590aff5afc76c6da91caae1691c4d36f642c0eefecd81b5d364736f6c634300080d0033",
  "immutableReferences": {
    "2288": [
      {
        "length": 32,
        "start": 2262
      },
      {
        "length": 32,
        "start": 2744
      },
      {
        "length": 32,
        "start": 2923
      }
    ]
  },
  "source": "// SPDX-License-Identifier: MIT\npragma solidity ^0.8.0;\n\nimport '@openzeppelin/contracts/token/ERC20/IERC20.sol';\nimport '@openzeppelin/contracts/token/ERC20/ERC20.sol';\nimport '@openzeppelin/contracts/token/ERC721/IERC721.sol';\nimport '@openzeppelin/contracts/token/ERC721/ERC721.sol';\n\ncontract Market is ERC721 {\n    // \n    address constant TOKEN_BUY = 0xCFf94b4606c1e3D73510A80d9868D9B07825D692;\n    address constant TOKEN_POINT = 0xCFf94b4606c1e3D73510A80d9868D9B07825D692;\n\n    /// @dev \n    address immutable creator;\n\n    mapping(address => uint8) items;\n\n    constructor() ERC721(\"NFT-16group\", \"NFT-16\") {\n        creator = msg.sender;\n    }\n\n    event GetTokenBuy(address indexed user, uint amount);\n    event BuyNFT(address indexed buyer, uint price, uint indexed id);\n    event Refund(uint time);\n    event Swap(address indexed user, address tokenIn, address tokenOut, uint amountIn, uint amountOut);\n\n    //  TokenBuy1:100\n    function getTokenBuy() public payable {\n        uint amount = msg.value / 1 ether;\n        IERC20(TOKEN_BUY).transfer(msg.sender, amount * 10000);\n\n        emit GetTokenBuy(msg.sender, amount);\n    }\n\n    // NFT\n    function buyNFT(uint tokenId, uint price) public {\n        IERC20(TOKEN_BUY).transferFrom(msg.sender, address(this), price);\n        _safeMint(msg.sender, tokenId);\n\n        emit BuyNFT(msg.sender, price / 100, tokenId);\n\n        getPoint(price);\n    }\n\n    // \n    function getPoint(uint price) internal {\n        uint amount = price / 2;\n        IERC20(TOKEN_POINT).transfer(tx.origin, amount);\n    }\n\n    // \n    function showEtherBalance() view public returns (uint) {\n        return address(this).balance;\n    }\n\n    //  ERC20 \n    function refund() external {\n        require(msg.sender == creator, \"Only creator can refund!\");\n        uint balanceOfBuy = IERC20(TOKEN_BUY).balanceOf(address(this));\n        uint balanceOfPoint = IERC20(TOKEN_POINT).balanceOf(address(this));\n        IERC20(TOKEN_BUY).transfer(creator, balanceOfBuy);\n        IERC20(TOKEN_POINT).transfer(creator, balanceOfPoint);\n\n        emit Refund(block.timestamp);\n    }\n\n    // TokenBuy  TokenPoint \n    function swap(address tokenIn, uint amountIn) public {\n        uint BuyBeforeSwap = IERC20(TOKEN_BUY).balanceOf(address(this));\n        uint PointBeforeSwap = IERC20(TOKEN_POINT).balanceOf(address(this));\n        // uint total = BuyBeforeSwap * PointBeforeSwap;\n        \n        if(tokenIn == TOKEN_BUY) {\n            // Buy  Point\n            IERC20(TOKEN_BUY).transferFrom(msg.sender, address(this), amountIn);\n            // uint BuyAfterSwap = IERC20(TOKEN_BUY).balanceOf(address(this));\n            uint amountOutPoint = cal(BuyBeforeSwap, PointBeforeSwap, amountIn);\n            IERC20(TOKEN_POINT).transfer(msg.sender, amountOutPoint);\n\n            emit Swap(msg.sender, tokenIn, TOKEN_POINT, amountIn, amountOutPoint);\n        } else {\n            // Point  Buy\n            IERC20(TOKEN_POINT).transferFrom(msg.sender, address(this), amountIn);\n            // uint PointAfterSwap = IERC20(TOKEN_BUY).balanceOf(address(this));\n            uint amountOutBuy = cal(PointBeforeSwap, BuyBeforeSwap, amountIn);\n            IERC20(TOKEN_BUY).transfer(msg.sender, amountOutBuy);\n\n            emit Swap(msg.sender, tokenIn, TOKEN_BUY, amountIn, amountOutBuy);\n        }\n    }\n\n    /// @param x  tokenA \n    /// @param y  tokenB \n    /// @param i  token \n    /// @param out  token \n    function cal(uint x, uint y, uint i) pure internal returns (uint out) {\n        uint temp = (x * y) / (x + i);\n        out = y - temp;\n    }\n}",
  "sourcePath": "/home/confucian/Truffle-Projects/NFT-Market/contracts/Market.sol",
  "compiler": {
    "name": "solc",
    "version": "0.8.13+commit.abaa5c0e.Emscripten.clang"
  },
  "schemaVersion": "3.4.7",
  "updatedAt": "2022-05-29T12:41:00.710Z",
  "devdoc": {
    "kind": "dev",
    "methods": {
      "approve(address,uint256)": {
        "details": "See {IERC721-approve}."
      },
      "balanceOf(address)": {
        "details": "See {IERC721-balanceOf}."
      },
      "getApproved(uint256)": {
        "details": "See {IERC721-getApproved}."
      },
      "isApprovedForAll(address,address)": {
        "details": "See {IERC721-isApprovedForAll}."
      },
      "name()": {
        "details": "See {IERC721Metadata-name}."
      },
      "ownerOf(uint256)": {
        "details": "See {IERC721-ownerOf}."
      },
      "safeTransferFrom(address,address,uint256)": {
        "details": "See {IERC721-safeTransferFrom}."
      },
      "safeTransferFrom(address,address,uint256,bytes)": {
        "details": "See {IERC721-safeTransferFrom}."
      },
      "setApprovalForAll(address,bool)": {
        "details": "See {IERC721-setApprovalForAll}."
      },
      "supportsInterface(bytes4)": {
        "details": "See {IERC165-supportsInterface}."
      },
      "symbol()": {
        "details": "See {IERC721Metadata-symbol}."
      },
      "tokenURI(uint256)": {
        "details": "See {IERC721Metadata-tokenURI}."
      },
      "transferFrom(address,address,uint256)": {
        "details": "See {IERC721-transferFrom}."
      }
    },
    "stateVariables": {
      "creator": {
        "details": ""
      }
    },
    "version": 1
  },
  "userdoc": {
    "kind": "user",
    "methods": {},
    "version": 1
  }
}