{
  "contractName": "Market",
  "abi": [
    {
      "inputs": [],
      "stateMutability": "nonpayable",
      "type": "constructor"
    },
    {
      "anonymous": false,
      "inputs": [
        {
          "indexed": true,
          "internalType": "address",
          "name": "owner",
          "type": "address"
        },
        {
          "indexed": true,
          "internalType": "address",
          "name": "approved",
          "type": "address"
        },
        {
          "indexed": true,
          "internalType": "uint256",
          "name": "tokenId",
          "type": "uint256"
        }
      ],
      "name": "Approval",
      "type": "event"
    },
    {
      "anonymous": false,
      "inputs": [
        {
          "indexed": true,
          "internalType": "address",
          "name": "owner",
          "type": "address"
        },
        {
          "indexed": true,
          "internalType": "address",
          "name": "operator",
          "type": "address"
        },
        {
          "indexed": false,
          "internalType": "bool",
          "name": "approved",
          "type": "bool"
        }
      ],
      "name": "ApprovalForAll",
      "type": "event"
    },
    {
      "anonymous": false,
      "inputs": [
        {
          "indexed": true,
          "internalType": "address",
          "name": "buyer",
          "type": "address"
        },
        {
          "indexed": false,
          "internalType": "uint256",
          "name": "price",
          "type": "uint256"
        },
        {
          "indexed": true,
          "internalType": "uint256",
          "name": "id",
          "type": "uint256"
        }
      ],
      "name": "BuyNFT",
      "type": "event"
    },
    {
      "anonymous": false,
      "inputs": [
        {
          "indexed": true,
          "internalType": "address",
          "name": "user",
          "type": "address"
        },
        {
          "indexed": false,
          "internalType": "uint256",
          "name": "amount",
          "type": "uint256"
        }
      ],
      "name": "GetTokenBuy",
      "type": "event"
    },
    {
      "anonymous": false,
      "inputs": [
        {
          "indexed": false,
          "internalType": "uint256",
          "name": "time",
          "type": "uint256"
        },
        {
          "indexed": false,
          "internalType": "uint256",
          "name": "amount",
          "type": "uint256"
        }
      ],
      "name": "Refund",
      "type": "event"
    },
    {
      "anonymous": false,
      "inputs": [
        {
          "indexed": true,
          "internalType": "address",
          "name": "user",
          "type": "address"
        },
        {
          "indexed": false,
          "internalType": "address",
          "name": "tokenIn",
          "type": "address"
        },
        {
          "indexed": false,
          "internalType": "address",
          "name": "tokenOut",
          "type": "address"
        },
        {
          "indexed": false,
          "internalType": "uint256",
          "name": "amountIn",
          "type": "uint256"
        },
        {
          "indexed": false,
          "internalType": "uint256",
          "name": "amountOut",
          "type": "uint256"
        }
      ],
      "name": "Swap",
      "type": "event"
    },
    {
      "anonymous": false,
      "inputs": [
        {
          "indexed": true,
          "internalType": "address",
          "name": "from",
          "type": "address"
        },
        {
          "indexed": true,
          "internalType": "address",
          "name": "to",
          "type": "address"
        },
        {
          "indexed": true,
          "internalType": "uint256",
          "name": "tokenId",
          "type": "uint256"
        }
      ],
      "name": "Transfer",
      "type": "event"
    },
    {
      "inputs": [
        {
          "internalType": "address",
          "name": "to",
          "type": "address"
        },
        {
          "internalType": "uint256",
          "name": "tokenId",
          "type": "uint256"
        }
      ],
      "name": "approve",
      "outputs": [],
      "stateMutability": "nonpayable",
      "type": "function"
    },
    {
      "inputs": [
        {
          "internalType": "address",
          "name": "owner",
          "type": "address"
        }
      ],
      "name": "balanceOf",
      "outputs": [
        {
          "internalType": "uint256",
          "name": "",
          "type": "uint256"
        }
      ],
      "stateMutability": "view",
      "type": "function"
    },
    {
      "inputs": [
        {
          "internalType": "uint256",
          "name": "tokenId",
          "type": "uint256"
        }
      ],
      "name": "getApproved",
      "outputs": [
        {
          "internalType": "address",
          "name": "",
          "type": "address"
        }
      ],
      "stateMutability": "view",
      "type": "function"
    },
    {
      "inputs": [
        {
          "internalType": "address",
          "name": "owner",
          "type": "address"
        },
        {
          "internalType": "address",
          "name": "operator",
          "type": "address"
        }
      ],
      "name": "isApprovedForAll",
      "outputs": [
        {
          "internalType": "bool",
          "name": "",
          "type": "bool"
        }
      ],
      "stateMutability": "view",
      "type": "function"
    },
    {
      "inputs": [],
      "name": "name",
      "outputs": [
        {
          "internalType": "string",
          "name": "",
          "type": "string"
        }
      ],
      "stateMutability": "view",
      "type": "function"
    },
    {
      "inputs": [
        {
          "internalType": "uint256",
          "name": "tokenId",
          "type": "uint256"
        }
      ],
      "name": "ownerOf",
      "outputs": [
        {
          "internalType": "address",
          "name": "",
          "type": "address"
        }
      ],
      "stateMutability": "view",
      "type": "function"
    },
    {
      "inputs": [
        {
          "internalType": "address",
          "name": "from",
          "type": "address"
        },
        {
          "internalType": "address",
          "name": "to",
          "type": "address"
        },
        {
          "internalType": "uint256",
          "name": "tokenId",
          "type": "uint256"
        }
      ],
      "name": "safeTransferFrom",
      "outputs": [],
      "stateMutability": "nonpayable",
      "type": "function"
    },
    {
      "inputs": [
        {
          "internalType": "address",
          "name": "from",
          "type": "address"
        },
        {
          "internalType": "address",
          "name": "to",
          "type": "address"
        },
        {
          "internalType": "uint256",
          "name": "tokenId",
          "type": "uint256"
        },
        {
          "internalType": "bytes",
          "name": "_data",
          "type": "bytes"
        }
      ],
      "name": "safeTransferFrom",
      "outputs": [],
      "stateMutability": "nonpayable",
      "type": "function"
    },
    {
      "inputs": [
        {
          "internalType": "address",
          "name": "operator",
          "type": "address"
        },
        {
          "internalType": "bool",
          "name": "approved",
          "type": "bool"
        }
      ],
      "name": "setApprovalForAll",
      "outputs": [],
      "stateMutability": "nonpayable",
      "type": "function"
    },
    {
      "inputs": [
        {
          "internalType": "bytes4",
          "name": "interfaceId",
          "type": "bytes4"
        }
      ],
      "name": "supportsInterface",
      "outputs": [
        {
          "internalType": "bool",
          "name": "",
          "type": "bool"
        }
      ],
      "stateMutability": "view",
      "type": "function"
    },
    {
      "inputs": [],
      "name": "symbol",
      "outputs": [
        {
          "internalType": "string",
          "name": "",
          "type": "string"
        }
      ],
      "stateMutability": "view",
      "type": "function"
    },
    {
      "inputs": [
        {
          "internalType": "uint256",
          "name": "tokenId",
          "type": "uint256"
        }
      ],
      "name": "tokenURI",
      "outputs": [
        {
          "internalType": "string",
          "name": "",
          "type": "string"
        }
      ],
      "stateMutability": "view",
      "type": "function"
    },
    {
      "inputs": [
        {
          "internalType": "address",
          "name": "from",
          "type": "address"
        },
        {
          "internalType": "address",
          "name": "to",
          "type": "address"
        },
        {
          "internalType": "uint256",
          "name": "tokenId",
          "type": "uint256"
        }
      ],
      "name": "transferFrom",
      "outputs": [],
      "stateMutability": "nonpayable",
      "type": "function"
    },
    {
      "inputs": [],
      "name": "getTokenBuy",
      "outputs": [],
      "stateMutability": "payable",
      "type": "function"
    },
    {
      "inputs": [
        {
          "internalType": "uint256",
          "name": "price",
          "type": "uint256"
        }
      ],
      "name": "buyNFT",
      "outputs": [],
      "stateMutability": "nonpayable",
      "type": "function"
    },
    {
      "inputs": [],
      "name": "showEtherBalance",
      "outputs": [
        {
          "internalType": "uint256",
          "name": "",
          "type": "uint256"
        }
      ],
      "stateMutability": "view",
      "type": "function"
    },
    {
      "inputs": [],
      "name": "refund",
      "outputs": [],
      "stateMutability": "nonpayable",
      "type": "function"
    },
    {
      "inputs": [
        {
          "internalType": "address",
          "name": "tokenIn",
          "type": "address"
        },
        {
          "internalType": "uint256",
          "name": "amountIn",
          "type": "uint256"
        }
      ],
      "name": "swap",
      "outputs": [],
      "stateMutability": "nonpayable",
      "type": "function"
    }
  ],
  "bytecode": "0x60a06040523480156200001157600080fd5b506040518060400160405280600b81526020017f4e46542d313667726f75700000000000000000000000000000000000000000008152506040518060400160405280600681526020017f4e46542d31360000000000000000000000000000000000000000000000000000815250816000908051906020019062000096929190620000ec565b508060019080519060200190620000af929190620000ec565b5050503373ffffffffffffffffffffffffffffffffffffffff1660808173ffffffffffffffffffffffffffffffffffffffff168152505062000200565b828054620000fa90620001cb565b90600052602060002090601f0160209004810192826200011e57600085556200016a565b82601f106200013957805160ff19168380011785556200016a565b828001600101855582156200016a579182015b82811115620001695782518255916020019190600101906200014c565b5b5090506200017991906200017d565b5090565b5b80821115620001985760008160009055506001016200017e565b5090565b7f4e487b7100000000000000000000000000000000000000000000000000000000600052602260045260246000fd5b60006002820490506001821680620001e457607f821691505b602082108103620001fa57620001f96200019c565b5b50919050565b6080516133ca62000223600039600081816108ee015261098101526133ca6000f3fe6080604052600436106101095760003560e01c806370a0823111610095578063bd88689311610064578063bd88689314610365578063c87b56dd1461036f578063d004f0f7146103ac578063e985e9c5146103d5578063f23958d11461041257610109565b806370a08231146102ab57806395d89b41146102e8578063a22cb46514610313578063b88d4fde1461033c57610109565b806323b872dd116100dc57806323b872dd146101dc57806342842e0e1461020557806351ed82881461022e578063590e1ae3146102575780636352211e1461026e57610109565b806301ffc9a71461010e57806306fdde031461014b578063081812fc14610176578063095ea7b3146101b3575b600080fd5b34801561011a57600080fd5b5061013560048036038101906101309190612137565b61043d565b604051610142919061217f565b60405180910390f35b34801561015757600080fd5b5061016061051f565b60405161016d9190612233565b60405180910390f35b34801561018257600080fd5b5061019d6004803603810190610198919061228b565b6105b1565b6040516101aa91906122f9565b60405180910390f35b3480156101bf57600080fd5b506101da60048036038101906101d59190612340565b610636565b005b3480156101e857600080fd5b5061020360048036038101906101fe9190612380565b61074d565b005b34801561021157600080fd5b5061022c60048036038101906102279190612380565b6107ad565b005b34801561023a57600080fd5b506102556004803603810190610250919061228b565b6107cd565b005b34801561026357600080fd5b5061026c6108ec565b005b34801561027a57600080fd5b506102956004803603810190610290919061228b565b610a22565b6040516102a291906122f9565b60405180910390f35b3480156102b757600080fd5b506102d260048036038101906102cd91906123d3565b610ad3565b6040516102df919061240f565b60405180910390f35b3480156102f457600080fd5b506102fd610b8a565b60405161030a9190612233565b60405180910390f35b34801561031f57600080fd5b5061033a60048036038101906103359190612456565b610c1c565b005b34801561034857600080fd5b50610363600480360381019061035e91906125cb565b610c32565b005b61036d610c94565b005b34801561037b57600080fd5b506103966004803603810190610391919061228b565b610da8565b6040516103a39190612233565b60405180910390f35b3480156103b857600080fd5b506103d360048036038101906103ce9190612340565b610e4f565b005b3480156103e157600080fd5b506103fc60048036038101906103f7919061264e565b611306565b604051610409919061217f565b60405180910390f35b34801561041e57600080fd5b5061042761139a565b604051610434919061240f565b60405180910390f35b60007f80ac58cd000000000000000000000000000000000000000000000000000000007bffffffffffffffffffffffffffffffffffffffffffffffffffffffff1916827bffffffffffffffffffffffffffffffffffffffffffffffffffffffff1916148061050857507f5b5e139f000000000000000000000000000000000000000000000000000000007bffffffffffffffffffffffffffffffffffffffffffffffffffffffff1916827bffffffffffffffffffffffffffffffffffffffffffffffffffffffff1916145b806105185750610517826113a2565b5b9050919050565b60606000805461052e906126bd565b80601f016020809104026020016040519081016040528092919081815260200182805461055a906126bd565b80156105a75780601f1061057c576101008083540402835291602001916105a7565b820191906000526020600020905b81548152906001019060200180831161058a57829003601f168201915b5050505050905090565b60006105bc8261140c565b6105fb576040517f08c379a00000000000000000000000000000000000000000000000000000000081526004016105f290612760565b60405180910390fd5b6004600083815260200190815260200160002060009054906101000a900473ffffffffffffffffffffffffffffffffffffffff169050919050565b600061064182610a22565b90508073ffffffffffffffffffffffffffffffffffffffff168373ffffffffffffffffffffffffffffffffffffffff16036106b1576040517f08c379a00000000000000000000000000000000000000000000000000000000081526004016106a8906127f2565b60405180910390fd5b8073ffffffffffffffffffffffffffffffffffffffff166106d0611478565b73ffffffffffffffffffffffffffffffffffffffff1614806106ff57506106fe816106f9611478565b611306565b5b61073e576040517f08c379a000000000000000000000000000000000000000000000000000000000815260040161073590612884565b60405180910390fd5b6107488383611480565b505050565b61075e610758611478565b82611539565b61079d576040517f08c379a000000000000000000000000000000000000000000000000000000000815260040161079490612916565b60405180910390fd5b6107a8838383611617565b505050565b6107c883838360405180602001604052806000815250610c32565b505050565b738713db4e36573fa319f56833c2ce4560d139199673ffffffffffffffffffffffffffffffffffffffff166323b872dd3330846040518463ffffffff1660e01b815260040161081e93929190612936565b6020604051808303816000875af115801561083d573d6000803e3d6000fd5b505050506040513d601f19601f820116820180604052508101906108619190612982565b50600061086e600661187d565b905061087a338261188b565b803373ffffffffffffffffffffffffffffffffffffffff167f5d963241241cfe9e161d13500d628058954b3febfde03e4b1f4071370e72fe2b6064856108c09190612a0d565b6040516108cd919061240f565b60405180910390a36108df60066118a9565b6108e8826118bf565b5050565b7f000000000000000000000000000000000000000000000000000000000000000073ffffffffffffffffffffffffffffffffffffffff163373ffffffffffffffffffffffffffffffffffffffff161461097a576040517f08c379a000000000000000000000000000000000000000000000000000000000815260040161097190612a8a565b60405180910390fd5b60004790507f000000000000000000000000000000000000000000000000000000000000000073ffffffffffffffffffffffffffffffffffffffff166108fc829081150290604051600060405180830381858888f193505050501580156109e5573d6000803e3d6000fd5b507f5eee8032448a7f1556f67b8a76a4dcfd75ff98c05198df9f420467d0a1234e384282604051610a17929190612aaa565b60405180910390a150565b6000806002600084815260200190815260200160002060009054906101000a900473ffffffffffffffffffffffffffffffffffffffff169050600073ffffffffffffffffffffffffffffffffffffffff168173ffffffffffffffffffffffffffffffffffffffff1603610aca576040517f08c379a0000000000000000000000000000000000000000000000000000000008152600401610ac190612b45565b60405180910390fd5b80915050919050565b60008073ffffffffffffffffffffffffffffffffffffffff168273ffffffffffffffffffffffffffffffffffffffff1603610b43576040517f08c379a0000000000000000000000000000000000000000000000000000000008152600401610b3a90612bd7565b60405180910390fd5b600360008373ffffffffffffffffffffffffffffffffffffffff1673ffffffffffffffffffffffffffffffffffffffff168152602001908152602001600020549050919050565b606060018054610b99906126bd565b80601f0160208091040260200160405190810160405280929190818152602001828054610bc5906126bd565b8015610c125780601f10610be757610100808354040283529160200191610c12565b820191906000526020600020905b815481529060010190602001808311610bf557829003601f168201915b5050505050905090565b610c2e610c27611478565b8383611967565b5050565b610c43610c3d611478565b83611539565b610c82576040517f08c379a0000000000000000000000000000000000000000000000000000000008152600401610c7990612916565b60405180910390fd5b610c8e84848484611ad3565b50505050565b600066038d7ea4c6800034610ca99190612a0d565b6103e8610cb69190612bf7565b9050738713db4e36573fa319f56833c2ce4560d139199673ffffffffffffffffffffffffffffffffffffffff1663a9059cbb33606484610cf69190612bf7565b6040518363ffffffff1660e01b8152600401610d13929190612c51565b6020604051808303816000875af1158015610d32573d6000803e3d6000fd5b505050506040513d601f19601f82011682018060405250810190610d569190612982565b503373ffffffffffffffffffffffffffffffffffffffff167f8a95714e927aa8b1b9c91f76cf6ea770446cf83958212a0410452eb5a834c56382604051610d9d919061240f565b60405180910390a250565b6060610db38261140c565b610df2576040517f08c379a0000000000000000000000000000000000000000000000000000000008152600401610de990612cec565b60405180910390fd5b6000610dfc611b2f565b90506000815111610e1c5760405180602001604052806000815250610e47565b80610e2684611b46565b604051602001610e37929190612d48565b6040516020818303038152906040525b915050919050565b6000738713db4e36573fa319f56833c2ce4560d139199673ffffffffffffffffffffffffffffffffffffffff166370a08231306040518263ffffffff1660e01b8152600401610e9e91906122f9565b602060405180830381865afa158015610ebb573d6000803e3d6000fd5b505050506040513d601f19601f82011682018060405250810190610edf9190612d81565b90506000730a814ca41263bfb79e46771188b0c1e85ac878b573ffffffffffffffffffffffffffffffffffffffff166370a08231306040518263ffffffff1660e01b8152600401610f3091906122f9565b602060405180830381865afa158015610f4d573d6000803e3d6000fd5b505050506040513d601f19601f82011682018060405250810190610f719190612d81565b9050738713db4e36573fa319f56833c2ce4560d139199673ffffffffffffffffffffffffffffffffffffffff168473ffffffffffffffffffffffffffffffffffffffff160361115f57738713db4e36573fa319f56833c2ce4560d139199673ffffffffffffffffffffffffffffffffffffffff166323b872dd3330866040518463ffffffff1660e01b815260040161100b93929190612936565b6020604051808303816000875af115801561102a573d6000803e3d6000fd5b505050506040513d601f19601f8201168201806040525081019061104e9190612982565b50600061105c838386611ca6565b9050730a814ca41263bfb79e46771188b0c1e85ac878b573ffffffffffffffffffffffffffffffffffffffff1663a9059cbb33836040518363ffffffff1660e01b81526004016110ad929190612c51565b6020604051808303816000875af11580156110cc573d6000803e3d6000fd5b505050506040513d601f19601f820116820180604052508101906110f09190612982565b503373ffffffffffffffffffffffffffffffffffffffff167fcd3829a3813dc3cdd188fd3d01dcf3268c16be2fdd2dd21d0665418816e4606286730a814ca41263bfb79e46771188b0c1e85ac878b587856040516111519493929190612dae565b60405180910390a250611300565b730a814ca41263bfb79e46771188b0c1e85ac878b573ffffffffffffffffffffffffffffffffffffffff166323b872dd3330866040518463ffffffff1660e01b81526004016111b093929190612936565b6020604051808303816000875af11580156111cf573d6000803e3d6000fd5b505050506040513d601f19601f820116820180604052508101906111f39190612982565b506000611201828486611ca6565b9050738713db4e36573fa319f56833c2ce4560d139199673ffffffffffffffffffffffffffffffffffffffff1663a9059cbb33836040518363ffffffff1660e01b8152600401611252929190612c51565b6020604051808303816000875af1158015611271573d6000803e3d6000fd5b505050506040513d601f19601f820116820180604052508101906112959190612982565b503373ffffffffffffffffffffffffffffffffffffffff167fcd3829a3813dc3cdd188fd3d01dcf3268c16be2fdd2dd21d0665418816e4606286738713db4e36573fa319f56833c2ce4560d139199687856040516112f69493929190612dae565b60405180910390a2505b50505050565b6000600560008473ffffffffffffffffffffffffffffffffffffffff1673ffffffffffffffffffffffffffffffffffffffff16815260200190815260200160002060008373ffffffffffffffffffffffffffffffffffffffff1673ffffffffffffffffffffffffffffffffffffffff16815260200190815260200160002060009054906101000a900460ff16905092915050565b600047905090565b60007f01ffc9a7000000000000000000000000000000000000000000000000000000007bffffffffffffffffffffffffffffffffffffffffffffffffffffffff1916827bffffffffffffffffffffffffffffffffffffffffffffffffffffffff1916149050919050565b60008073ffffffffffffffffffffffffffffffffffffffff166002600084815260200190815260200160002060009054906101000a900473ffffffffffffffffffffffffffffffffffffffff1673ffffffffffffffffffffffffffffffffffffffff1614159050919050565b600033905090565b816004600083815260200190815260200160002060006101000a81548173ffffffffffffffffffffffffffffffffffffffff021916908373ffffffffffffffffffffffffffffffffffffffff160217905550808273ffffffffffffffffffffffffffffffffffffffff166114f383610a22565b73ffffffffffffffffffffffffffffffffffffffff167f8c5be1e5ebec7d5bd14f71427d1e84f3dd0314c0f7b2291e5b200ac8c7c3b92560405160405180910390a45050565b60006115448261140c565b611583576040517f08c379a000000000000000000000000000000000000000000000000000000000815260040161157a90612e65565b60405180910390fd5b600061158e83610a22565b90508073ffffffffffffffffffffffffffffffffffffffff168473ffffffffffffffffffffffffffffffffffffffff1614806115d057506115cf8185611306565b5b8061160e57508373ffffffffffffffffffffffffffffffffffffffff166115f6846105b1565b73ffffffffffffffffffffffffffffffffffffffff16145b91505092915050565b8273ffffffffffffffffffffffffffffffffffffffff1661163782610a22565b73ffffffffffffffffffffffffffffffffffffffff161461168d576040517f08c379a000000000000000000000000000000000000000000000000000000000815260040161168490612ef7565b60405180910390fd5b600073ffffffffffffffffffffffffffffffffffffffff168273ffffffffffffffffffffffffffffffffffffffff16036116fc576040517f08c379a00000000000000000000000000000000000000000000000000000000081526004016116f390612f89565b60405180910390fd5b611707838383611ce3565b611712600082611480565b6001600360008573ffffffffffffffffffffffffffffffffffffffff1673ffffffffffffffffffffffffffffffffffffffff16815260200190815260200160002060008282546117629190612fa9565b925050819055506001600360008473ffffffffffffffffffffffffffffffffffffffff1673ffffffffffffffffffffffffffffffffffffffff16815260200190815260200160002060008282546117b99190612fdd565b92505081905550816002600083815260200190815260200160002060006101000a81548173ffffffffffffffffffffffffffffffffffffffff021916908373ffffffffffffffffffffffffffffffffffffffff160217905550808273ffffffffffffffffffffffffffffffffffffffff168473ffffffffffffffffffffffffffffffffffffffff167fddf252ad1be2c89b69c2b068fc378daa952ba7f163c4a11628f55a4df523b3ef60405160405180910390a4611878838383611ce8565b505050565b600081600001549050919050565b6118a5828260405180602001604052806000815250611ced565b5050565b6001816000016000828254019250508190555050565b60006002826118ce9190612a0d565b9050730a814ca41263bfb79e46771188b0c1e85ac878b573ffffffffffffffffffffffffffffffffffffffff1663a9059cbb32836040518363ffffffff1660e01b815260040161191f929190612c51565b6020604051808303816000875af115801561193e573d6000803e3d6000fd5b505050506040513d601f19601f820116820180604052508101906119629190612982565b505050565b8173ffffffffffffffffffffffffffffffffffffffff168373ffffffffffffffffffffffffffffffffffffffff16036119d5576040517f08c379a00000000000000000000000000000000000000000000000000000000081526004016119cc9061307f565b60405180910390fd5b80600560008573ffffffffffffffffffffffffffffffffffffffff1673ffffffffffffffffffffffffffffffffffffffff16815260200190815260200160002060008473ffffffffffffffffffffffffffffffffffffffff1673ffffffffffffffffffffffffffffffffffffffff16815260200190815260200160002060006101000a81548160ff0219169083151502179055508173ffffffffffffffffffffffffffffffffffffffff168373ffffffffffffffffffffffffffffffffffffffff167f17307eab39ab6107e8899845ad3d59bd9653f200f220920489ca2b5937696c3183604051611ac6919061217f565b60405180910390a3505050565b611ade848484611617565b611aea84848484611d48565b611b29576040517f08c379a0000000000000000000000000000000000000000000000000000000008152600401611b2090613111565b60405180910390fd5b50505050565b606060405180602001604052806000815250905090565b606060008203611b8d576040518060400160405280600181526020017f30000000000000000000000000000000000000000000000000000000000000008152509050611ca1565b600082905060005b60008214611bbf578080611ba890613131565b915050600a82611bb89190612a0d565b9150611b95565b60008167ffffffffffffffff811115611bdb57611bda6124a0565b5b6040519080825280601f01601f191660200182016040528015611c0d5781602001600182028036833780820191505090505b5090505b60008514611c9a57600182611c269190612fa9565b9150600a85611c359190613179565b6030611c419190612fdd565b60f81b818381518110611c5757611c566131aa565b5b60200101907effffffffffffffffffffffffffffffffffffffffffffffffffffffffffffff1916908160001a905350600a85611c939190612a0d565b9450611c11565b8093505050505b919050565b6000808285611cb59190612fdd565b8486611cc19190612bf7565b611ccb9190612a0d565b90508084611cd99190612fa9565b9150509392505050565b505050565b505050565b611cf78383611ecf565b611d046000848484611d48565b611d43576040517f08c379a0000000000000000000000000000000000000000000000000000000008152600401611d3a90613111565b60405180910390fd5b505050565b6000611d698473ffffffffffffffffffffffffffffffffffffffff166120a8565b15611ec2578373ffffffffffffffffffffffffffffffffffffffff1663150b7a02611d92611478565b8786866040518563ffffffff1660e01b8152600401611db4949392919061322e565b6020604051808303816000875af1925050508015611df057506040513d601f19601f82011682018060405250810190611ded919061328f565b60015b611e72573d8060008114611e20576040519150601f19603f3d011682016040523d82523d6000602084013e611e25565b606091505b506000815103611e6a576040517f08c379a0000000000000000000000000000000000000000000000000000000008152600401611e6190613111565b60405180910390fd5b805181602001fd5b63150b7a0260e01b7bffffffffffffffffffffffffffffffffffffffffffffffffffffffff1916817bffffffffffffffffffffffffffffffffffffffffffffffffffffffff191614915050611ec7565b600190505b949350505050565b600073ffffffffffffffffffffffffffffffffffffffff168273ffffffffffffffffffffffffffffffffffffffff1603611f3e576040517f08c379a0000000000000000000000000000000000000000000000000000000008152600401611f3590613308565b60405180910390fd5b611f478161140c565b15611f87576040517f08c379a0000000000000000000000000000000000000000000000000000000008152600401611f7e90613374565b60405180910390fd5b611f9360008383611ce3565b6001600360008473ffffffffffffffffffffffffffffffffffffffff1673ffffffffffffffffffffffffffffffffffffffff1681526020019081526020016000206000828254611fe39190612fdd565b92505081905550816002600083815260200190815260200160002060006101000a81548173ffffffffffffffffffffffffffffffffffffffff021916908373ffffffffffffffffffffffffffffffffffffffff160217905550808273ffffffffffffffffffffffffffffffffffffffff16600073ffffffffffffffffffffffffffffffffffffffff167fddf252ad1be2c89b69c2b068fc378daa952ba7f163c4a11628f55a4df523b3ef60405160405180910390a46120a460008383611ce8565b5050565b6000808273ffffffffffffffffffffffffffffffffffffffff163b119050919050565b6000604051905090565b600080fd5b600080fd5b60007fffffffff0000000000000000000000000000000000000000000000000000000082169050919050565b612114816120df565b811461211f57600080fd5b50565b6000813590506121318161210b565b92915050565b60006020828403121561214d5761214c6120d5565b5b600061215b84828501612122565b91505092915050565b60008115159050919050565b61217981612164565b82525050565b60006020820190506121946000830184612170565b92915050565b600081519050919050565b600082825260208201905092915050565b60005b838110156121d45780820151818401526020810190506121b9565b838111156121e3576000848401525b50505050565b6000601f19601f8301169050919050565b60006122058261219a565b61220f81856121a5565b935061221f8185602086016121b6565b612228816121e9565b840191505092915050565b6000602082019050818103600083015261224d81846121fa565b905092915050565b6000819050919050565b61226881612255565b811461227357600080fd5b50565b6000813590506122858161225f565b92915050565b6000602082840312156122a1576122a06120d5565b5b60006122af84828501612276565b91505092915050565b600073ffffffffffffffffffffffffffffffffffffffff82169050919050565b60006122e3826122b8565b9050919050565b6122f3816122d8565b82525050565b600060208201905061230e60008301846122ea565b92915050565b61231d816122d8565b811461232857600080fd5b50565b60008135905061233a81612314565b92915050565b60008060408385031215612357576123566120d5565b5b60006123658582860161232b565b925050602061237685828601612276565b9150509250929050565b600080600060608486031215612399576123986120d5565b5b60006123a78682870161232b565b93505060206123b88682870161232b565b92505060406123c986828701612276565b9150509250925092565b6000602082840312156123e9576123e86120d5565b5b60006123f78482850161232b565b91505092915050565b61240981612255565b82525050565b60006020820190506124246000830184612400565b92915050565b61243381612164565b811461243e57600080fd5b50565b6000813590506124508161242a565b92915050565b6000806040838503121561246d5761246c6120d5565b5b600061247b8582860161232b565b925050602061248c85828601612441565b9150509250929050565b600080fd5b600080fd5b7f4e487b7100000000000000000000000000000000000000000000000000000000600052604160045260246000fd5b6124d8826121e9565b810181811067ffffffffffffffff821117156124f7576124f66124a0565b5b80604052505050565b600061250a6120cb565b905061251682826124cf565b919050565b600067ffffffffffffffff821115612536576125356124a0565b5b61253f826121e9565b9050602081019050919050565b82818337600083830152505050565b600061256e6125698461251b565b612500565b90508281526020810184848401111561258a5761258961249b565b5b61259584828561254c565b509392505050565b600082601f8301126125b2576125b1612496565b5b81356125c284826020860161255b565b91505092915050565b600080600080608085870312156125e5576125e46120d5565b5b60006125f38782880161232b565b94505060206126048782880161232b565b935050604061261587828801612276565b925050606085013567ffffffffffffffff811115612636576126356120da565b5b6126428782880161259d565b91505092959194509250565b60008060408385031215612665576126646120d5565b5b60006126738582860161232b565b92505060206126848582860161232b565b9150509250929050565b7f4e487b7100000000000000000000000000000000000000000000000000000000600052602260045260246000fd5b600060028204905060018216806126d557607f821691505b6020821081036126e8576126e761268e565b5b50919050565b7f4552433732313a20617070726f76656420717565727920666f72206e6f6e657860008201527f697374656e7420746f6b656e0000000000000000000000000000000000000000602082015250565b600061274a602c836121a5565b9150612755826126ee565b604082019050919050565b600060208201905081810360008301526127798161273d565b9050919050565b7f4552433732313a20617070726f76616c20746f2063757272656e74206f776e6560008201527f7200000000000000000000000000000000000000000000000000000000000000602082015250565b60006127dc6021836121a5565b91506127e782612780565b604082019050919050565b6000602082019050818103600083015261280b816127cf565b9050919050565b7f4552433732313a20617070726f76652063616c6c6572206973206e6f74206f7760008201527f6e6572206e6f7220617070726f76656420666f7220616c6c0000000000000000602082015250565b600061286e6038836121a5565b915061287982612812565b604082019050919050565b6000602082019050818103600083015261289d81612861565b9050919050565b7f4552433732313a207472616e736665722063616c6c6572206973206e6f74206f60008201527f776e6572206e6f7220617070726f766564000000000000000000000000000000602082015250565b60006129006031836121a5565b915061290b826128a4565b604082019050919050565b6000602082019050818103600083015261292f816128f3565b9050919050565b600060608201905061294b60008301866122ea565b61295860208301856122ea565b6129656040830184612400565b949350505050565b60008151905061297c8161242a565b92915050565b600060208284031215612998576129976120d5565b5b60006129a68482850161296d565b91505092915050565b7f4e487b7100000000000000000000000000000000000000000000000000000000600052601260045260246000fd5b7f4e487b7100000000000000000000000000000000000000000000000000000000600052601160045260246000fd5b6000612a1882612255565b9150612a2383612255565b925082612a3357612a326129af565b5b828204905092915050565b7f4f6e6c792063726561746f722063616e20726566756e64210000000000000000600082015250565b6000612a746018836121a5565b9150612a7f82612a3e565b602082019050919050565b60006020820190508181036000830152612aa381612a67565b9050919050565b6000604082019050612abf6000830185612400565b612acc6020830184612400565b9392505050565b7f4552433732313a206f776e657220717565727920666f72206e6f6e657869737460008201527f656e7420746f6b656e0000000000000000000000000000000000000000000000602082015250565b6000612b2f6029836121a5565b9150612b3a82612ad3565b604082019050919050565b60006020820190508181036000830152612b5e81612b22565b9050919050565b7f4552433732313a2062616c616e636520717565727920666f7220746865207a6560008201527f726f206164647265737300000000000000000000000000000000000000000000602082015250565b6000612bc1602a836121a5565b9150612bcc82612b65565b604082019050919050565b60006020820190508181036000830152612bf081612bb4565b9050919050565b6000612c0282612255565b9150612c0d83612255565b9250817fffffffffffffffffffffffffffffffffffffffffffffffffffffffffffffffff0483118215151615612c4657612c456129de565b5b828202905092915050565b6000604082019050612c6660008301856122ea565b612c736020830184612400565b9392505050565b7f4552433732314d657461646174613a2055524920717565727920666f72206e6f60008201527f6e6578697374656e7420746f6b656e0000000000000000000000000000000000602082015250565b6000612cd6602f836121a5565b9150612ce182612c7a565b604082019050919050565b60006020820190508181036000830152612d0581612cc9565b9050919050565b600081905092915050565b6000612d228261219a565b612d2c8185612d0c565b9350612d3c8185602086016121b6565b80840191505092915050565b6000612d548285612d17565b9150612d608284612d17565b91508190509392505050565b600081519050612d7b8161225f565b92915050565b600060208284031215612d9757612d966120d5565b5b6000612da584828501612d6c565b91505092915050565b6000608082019050612dc360008301876122ea565b612dd060208301866122ea565b612ddd6040830185612400565b612dea6060830184612400565b95945050505050565b7f4552433732313a206f70657261746f7220717565727920666f72206e6f6e657860008201527f697374656e7420746f6b656e0000000000000000000000000000000000000000602082015250565b6000612e4f602c836121a5565b9150612e5a82612df3565b604082019050919050565b60006020820190508181036000830152612e7e81612e42565b9050919050565b7f4552433732313a207472616e736665722066726f6d20696e636f72726563742060008201527f6f776e6572000000000000000000000000000000000000000000000000000000602082015250565b6000612ee16025836121a5565b9150612eec82612e85565b604082019050919050565b60006020820190508181036000830152612f1081612ed4565b9050919050565b7f4552433732313a207472616e7366657220746f20746865207a65726f2061646460008201527f7265737300000000000000000000000000000000000000000000000000000000602082015250565b6000612f736024836121a5565b9150612f7e82612f17565b604082019050919050565b60006020820190508181036000830152612fa281612f66565b9050919050565b6000612fb482612255565b9150612fbf83612255565b925082821015612fd257612fd16129de565b5b828203905092915050565b6000612fe882612255565b9150612ff383612255565b9250827fffffffffffffffffffffffffffffffffffffffffffffffffffffffffffffffff03821115613028576130276129de565b5b828201905092915050565b7f4552433732313a20617070726f766520746f2063616c6c657200000000000000600082015250565b60006130696019836121a5565b915061307482613033565b602082019050919050565b600060208201905081810360008301526130988161305c565b9050919050565b7f4552433732313a207472616e7366657220746f206e6f6e20455243373231526560008201527f63656976657220696d706c656d656e7465720000000000000000000000000000602082015250565b60006130fb6032836121a5565b91506131068261309f565b604082019050919050565b6000602082019050818103600083015261312a816130ee565b9050919050565b600061313c82612255565b91507fffffffffffffffffffffffffffffffffffffffffffffffffffffffffffffffff820361316e5761316d6129de565b5b600182019050919050565b600061318482612255565b915061318f83612255565b92508261319f5761319e6129af565b5b828206905092915050565b7f4e487b7100000000000000000000000000000000000000000000000000000000600052603260045260246000fd5b600081519050919050565b600082825260208201905092915050565b6000613200826131d9565b61320a81856131e4565b935061321a8185602086016121b6565b613223816121e9565b840191505092915050565b600060808201905061324360008301876122ea565b61325060208301866122ea565b61325d6040830185612400565b818103606083015261326f81846131f5565b905095945050505050565b6000815190506132898161210b565b92915050565b6000602082840312156132a5576132a46120d5565b5b60006132b38482850161327a565b91505092915050565b7f4552433732313a206d696e7420746f20746865207a65726f2061646472657373600082015250565b60006132f26020836121a5565b91506132fd826132bc565b602082019050919050565b60006020820190508181036000830152613321816132e5565b9050919050565b7f4552433732313a20746f6b656e20616c7265616479206d696e74656400000000600082015250565b600061335e601c836121a5565b915061336982613328565b602082019050919050565b6000602082019050818103600083015261338d81613351565b905091905056fea2646970667358221220f82b36445f807f6d559f0865ce4da2386828ec95827f21c8414411002a1675ab64736f6c634300080d0033",
  "immutableReferences": {
    "2367": [
      {
        "length": 32,
        "start": 2286
      },
      {
        "length": 32,
        "start": 2433
      }
    ]
  },
  "source": "// SPDX-License-Identifier: MIT\npragma solidity ^0.8.0;\n\nimport '@openzeppelin/contracts/token/ERC20/IERC20.sol';\nimport '@openzeppelin/contracts/token/ERC20/ERC20.sol';\nimport '@openzeppelin/contracts/token/ERC721/IERC721.sol';\nimport '@openzeppelin/contracts/token/ERC721/ERC721.sol';\nimport '@openzeppelin/contracts/utils/Counters.sol';\n\ncontract Market is ERC721 {\n    using Counters for Counters.Counter;\n    // \n    address constant TOKEN_BUY = 0x8713dB4e36573Fa319f56833c2cE4560D1391996;\n    address constant TOKEN_POINT = 0x0a814cA41263Bfb79E46771188B0c1E85ac878B5;\n\n    /// @dev \n    address immutable creator;\n\n    /// @dev NFT\n    Counters.Counter private _tokenIds;\n\n    constructor() ERC721(\"NFT-16group\", \"NFT-16\") {\n        creator = msg.sender;\n    }\n\n    event GetTokenBuy(address indexed user, uint amount);\n    event BuyNFT(address indexed buyer, uint price, uint indexed id);\n    event Refund(uint time, uint amount);\n    event Swap(address indexed user, address tokenIn, address tokenOut, uint amountIn, uint amountOut);\n\n    //  TokenBuy1 finney : 1000 Buy\n    function getTokenBuy() public payable {\n        uint amount = 1000 * (msg.value / 1000000 gwei);\n        IERC20(TOKEN_BUY).transfer(msg.sender, amount * 100);\n\n        emit GetTokenBuy(msg.sender, amount);\n    }\n\n    // NFT\n    function buyNFT(uint price) public {\n        IERC20(TOKEN_BUY).transferFrom(msg.sender, address(this), price);\n        uint newItemId = _tokenIds.current();\n        _safeMint(msg.sender, newItemId);\n\n        emit BuyNFT(msg.sender, price / 100, newItemId);\n\n        _tokenIds.increment();\n        getPoint(price);\n    }\n\n    // \n    function getPoint(uint price) internal {\n        uint amount = price / 2;\n        IERC20(TOKEN_POINT).transfer(tx.origin, amount);\n    }\n\n    // \n    function showEtherBalance() view public returns (uint) {\n        return address(this).balance;\n    }\n\n    // \n    function refund() external {\n        require(msg.sender == creator, \"Only creator can refund!\");\n        uint balanceETH = address(this).balance;\n        payable(creator).transfer(balanceETH);\n\n        emit Refund(block.timestamp, balanceETH);\n    }\n\n    // TokenBuy  TokenPoint \n    function swap(address tokenIn, uint amountIn) public {\n        uint BuyBeforeSwap = IERC20(TOKEN_BUY).balanceOf(address(this));\n        uint PointBeforeSwap = IERC20(TOKEN_POINT).balanceOf(address(this));\n        \n        if(tokenIn == TOKEN_BUY) {\n            // Buy  Point\n            IERC20(TOKEN_BUY).transferFrom(msg.sender, address(this), amountIn);\n            uint amountOutPoint = cal(BuyBeforeSwap, PointBeforeSwap, amountIn);\n            IERC20(TOKEN_POINT).transfer(msg.sender, amountOutPoint);\n\n            emit Swap(msg.sender, tokenIn, TOKEN_POINT, amountIn, amountOutPoint);\n        } else {\n            // Point  Buy\n            IERC20(TOKEN_POINT).transferFrom(msg.sender, address(this), amountIn);\n            uint amountOutBuy = cal(PointBeforeSwap, BuyBeforeSwap, amountIn);\n            IERC20(TOKEN_BUY).transfer(msg.sender, amountOutBuy);\n\n            emit Swap(msg.sender, tokenIn, TOKEN_BUY, amountIn, amountOutBuy);\n        }\n    }\n\n    /// @param x  tokenA \n    /// @param y  tokenB \n    /// @param i  token \n    /// @param out  token \n    function cal(uint x, uint y, uint i) pure internal returns (uint out) {\n        uint temp = (x * y) / (x + i);\n        out = y - temp;\n    }\n}\n",
  "sourcePath": "/home/confucian/Truffle-Projects/NFT-Market/contracts/Market.sol",
  "compiler": {
    "name": "solc",
    "version": "0.8.13+commit.abaa5c0e.Emscripten.clang"
  },
  "schemaVersion": "3.4.7",
  "updatedAt": "2022-05-31T15:29:47.541Z",
  "devdoc": {
    "kind": "dev",
    "methods": {
      "approve(address,uint256)": {
        "details": "See {IERC721-approve}."
      },
      "balanceOf(address)": {
        "details": "See {IERC721-balanceOf}."
      },
      "getApproved(uint256)": {
        "details": "See {IERC721-getApproved}."
      },
      "isApprovedForAll(address,address)": {
        "details": "See {IERC721-isApprovedForAll}."
      },
      "name()": {
        "details": "See {IERC721Metadata-name}."
      },
      "ownerOf(uint256)": {
        "details": "See {IERC721-ownerOf}."
      },
      "safeTransferFrom(address,address,uint256)": {
        "details": "See {IERC721-safeTransferFrom}."
      },
      "safeTransferFrom(address,address,uint256,bytes)": {
        "details": "See {IERC721-safeTransferFrom}."
      },
      "setApprovalForAll(address,bool)": {
        "details": "See {IERC721-setApprovalForAll}."
      },
      "supportsInterface(bytes4)": {
        "details": "See {IERC165-supportsInterface}."
      },
      "symbol()": {
        "details": "See {IERC721Metadata-symbol}."
      },
      "tokenURI(uint256)": {
        "details": "See {IERC721Metadata-tokenURI}."
      },
      "transferFrom(address,address,uint256)": {
        "details": "See {IERC721-transferFrom}."
      }
    },
    "stateVariables": {
      "_tokenIds": {
        "details": "NFT"
      },
      "creator": {
        "details": ""
      }
    },
    "version": 1
  },
  "userdoc": {
    "kind": "user",
    "methods": {},
    "version": 1
  }
}